{
  "_format": "hh-sol-artifact-1",
  "contractName": "AspenToken",
  "sourceName": "contracts/aspen-erc20.sol",
  "abi": [
    {
      "inputs": [],
      "stateMutability": "nonpayable",
      "type": "constructor"
    },
    {
      "anonymous": false,
      "inputs": [
        {
          "indexed": true,
          "internalType": "address",
          "name": "owner",
          "type": "address"
        },
        {
          "indexed": true,
          "internalType": "address",
          "name": "spender",
          "type": "address"
        },
        {
          "indexed": false,
          "internalType": "uint256",
          "name": "value",
          "type": "uint256"
        }
      ],
      "name": "Approval",
      "type": "event"
    },
    {
      "anonymous": false,
      "inputs": [
        {
          "indexed": true,
          "internalType": "address",
          "name": "from",
          "type": "address"
        },
        {
          "indexed": true,
          "internalType": "address",
          "name": "to",
          "type": "address"
        },
        {
          "indexed": false,
          "internalType": "uint256",
          "name": "value",
          "type": "uint256"
        }
      ],
      "name": "Transfer",
      "type": "event"
    },
    {
      "inputs": [
        {
          "internalType": "address",
          "name": "owner",
          "type": "address"
        },
        {
          "internalType": "address",
          "name": "spender",
          "type": "address"
        }
      ],
      "name": "allowance",
      "outputs": [
        {
          "internalType": "uint256",
          "name": "",
          "type": "uint256"
        }
      ],
      "stateMutability": "view",
      "type": "function"
    },
    {
      "inputs": [
        {
          "internalType": "address",
          "name": "spender",
          "type": "address"
        },
        {
          "internalType": "uint256",
          "name": "amount",
          "type": "uint256"
        }
      ],
      "name": "approve",
      "outputs": [
        {
          "internalType": "bool",
          "name": "",
          "type": "bool"
        }
      ],
      "stateMutability": "nonpayable",
      "type": "function"
    },
    {
      "inputs": [
        {
          "internalType": "address",
          "name": "account",
          "type": "address"
        }
      ],
      "name": "balanceOf",
      "outputs": [
        {
          "internalType": "uint256",
          "name": "",
          "type": "uint256"
        }
      ],
      "stateMutability": "view",
      "type": "function"
    },
    {
      "inputs": [],
      "name": "cap",
      "outputs": [
        {
          "internalType": "uint256",
          "name": "",
          "type": "uint256"
        }
      ],
      "stateMutability": "view",
      "type": "function"
    },
    {
      "inputs": [],
      "name": "decimals",
      "outputs": [
        {
          "internalType": "uint8",
          "name": "",
          "type": "uint8"
        }
      ],
      "stateMutability": "view",
      "type": "function"
    },
    {
      "inputs": [
        {
          "internalType": "address",
          "name": "spender",
          "type": "address"
        },
        {
          "internalType": "uint256",
          "name": "subtractedValue",
          "type": "uint256"
        }
      ],
      "name": "decreaseAllowance",
      "outputs": [
        {
          "internalType": "bool",
          "name": "",
          "type": "bool"
        }
      ],
      "stateMutability": "nonpayable",
      "type": "function"
    },
    {
      "inputs": [
        {
          "internalType": "address",
          "name": "spender",
          "type": "address"
        },
        {
          "internalType": "uint256",
          "name": "addedValue",
          "type": "uint256"
        }
      ],
      "name": "increaseAllowance",
      "outputs": [
        {
          "internalType": "bool",
          "name": "",
          "type": "bool"
        }
      ],
      "stateMutability": "nonpayable",
      "type": "function"
    },
    {
      "inputs": [
        {
          "internalType": "address",
          "name": "_to",
          "type": "address"
        },
        {
          "internalType": "uint256",
          "name": "_amount",
          "type": "uint256"
        }
      ],
      "name": "mintAspenTokens",
      "outputs": [],
      "stateMutability": "nonpayable",
      "type": "function"
    },
    {
      "inputs": [],
      "name": "name",
      "outputs": [
        {
          "internalType": "string",
          "name": "",
          "type": "string"
        }
      ],
      "stateMutability": "view",
      "type": "function"
    },
    {
      "inputs": [],
      "name": "owner",
      "outputs": [
        {
          "internalType": "address",
          "name": "",
          "type": "address"
        }
      ],
      "stateMutability": "view",
      "type": "function"
    },
    {
      "inputs": [],
      "name": "symbol",
      "outputs": [
        {
          "internalType": "string",
          "name": "",
          "type": "string"
        }
      ],
      "stateMutability": "view",
      "type": "function"
    },
    {
      "inputs": [],
      "name": "totalSupply",
      "outputs": [
        {
          "internalType": "uint256",
          "name": "",
          "type": "uint256"
        }
      ],
      "stateMutability": "view",
      "type": "function"
    },
    {
      "inputs": [
        {
          "internalType": "address",
          "name": "recipient",
          "type": "address"
        },
        {
          "internalType": "uint256",
          "name": "amount",
          "type": "uint256"
        }
      ],
      "name": "transfer",
      "outputs": [
        {
          "internalType": "bool",
          "name": "",
          "type": "bool"
        }
      ],
      "stateMutability": "nonpayable",
      "type": "function"
    },
    {
      "inputs": [
        {
          "internalType": "address",
          "name": "sender",
          "type": "address"
        },
        {
          "internalType": "address",
          "name": "recipient",
          "type": "address"
        },
        {
          "internalType": "uint256",
          "name": "amount",
          "type": "uint256"
        }
      ],
      "name": "transferFrom",
      "outputs": [
        {
          "internalType": "bool",
          "name": "",
          "type": "bool"
        }
      ],
      "stateMutability": "nonpayable",
      "type": "function"
    }
  ],
  "bytecode": "0x60a06040523480156200001157600080fd5b506a25391ee35a05c54d0000006040518060400160405280600581526020016420b9b832b760d91b8152506040518060400160405280600581526020016420a9a822a760d91b81525081600390805190602001906200007292919062000204565b5080516200008890600490602084019062000204565b50505060008111620000e15760405162461bcd60e51b815260206004820152601560248201527f45524332304361707065643a206361702069732030000000000000000000000060448201526064015b60405180910390fd5b60805262000107336a0c685fa11e01ec6f0000006200011f602090811b620004de17901c565b600580546001600160a01b031916331790556200030e565b6001600160a01b038216620001775760405162461bcd60e51b815260206004820152601f60248201527f45524332303a206d696e7420746f20746865207a65726f2061646472657373006044820152606401620000d8565b80600260008282546200018b9190620002aa565b90915550506001600160a01b03821660009081526020819052604081208054839290620001ba908490620002aa565b90915550506040518181526001600160a01b038316906000907fddf252ad1be2c89b69c2b068fc378daa952ba7f163c4a11628f55a4df523b3ef9060200160405180910390a35050565b8280546200021290620002d1565b90600052602060002090601f01602090048101928262000236576000855562000281565b82601f106200025157805160ff191683800117855562000281565b8280016001018555821562000281579182015b828111156200028157825182559160200191906001019062000264565b506200028f92915062000293565b5090565b5b808211156200028f576000815560010162000294565b60008219821115620002cc57634e487b7160e01b600052601160045260246000fd5b500190565b600181811c90821680620002e657607f821691505b602082108114156200030857634e487b7160e01b600052602260045260246000fd5b50919050565b608051610b28620003316000396000818161017b01526108bb0152610b286000f3fe608060405234801561001057600080fd5b50600436106100ea5760003560e01c8063395093511161008c57806395d89b411161006657806395d89b4114610206578063a457c2d71461020e578063a9059cbb14610221578063dd62ed3e1461023457600080fd5b8063395093511461019f57806370a08231146101b25780638da5cb5b146101db57600080fd5b806323b872dd116100c857806323b872dd1461014257806327dc2b7b14610155578063313ce5671461016a578063355274ea1461017957600080fd5b806306fdde03146100ef578063095ea7b31461010d57806318160ddd14610130575b600080fd5b6100f761026d565b6040516101049190610a1d565b60405180910390f35b61012061011b3660046109f3565b6102ff565b6040519015158152602001610104565b6002545b604051908152602001610104565b6101206101503660046109b7565b610315565b6101686101633660046109f3565b6103cb565b005b60405160128152602001610104565b7f0000000000000000000000000000000000000000000000000000000000000000610134565b6101206101ad3660046109f3565b6103f0565b6101346101c0366004610962565b6001600160a01b031660009081526020819052604090205490565b6005546101ee906001600160a01b031681565b6040516001600160a01b039091168152602001610104565b6100f7610427565b61012061021c3660046109f3565b610436565b61012061022f3660046109f3565b6104d1565b610134610242366004610984565b6001600160a01b03918216600090815260016020908152604080832093909416825291909152205490565b60606003805461027c90610aa1565b80601f01602080910402602001604051908101604052809291908181526020018280546102a890610aa1565b80156102f55780601f106102ca576101008083540402835291602001916102f5565b820191906000526020600020905b8154815290600101906020018083116102d857829003601f168201915b5050505050905090565b600061030c3384846105bd565b50600192915050565b60006103228484846106e1565b6001600160a01b0384166000908152600160209081526040808320338452909152902054828110156103ac5760405162461bcd60e51b815260206004820152602860248201527f45524332303a207472616e7366657220616d6f756e74206578636565647320616044820152676c6c6f77616e636560c01b60648201526084015b60405180910390fd5b6103c085336103bb8685610a8a565b6105bd565b506001949350505050565b6005546001600160a01b031633146103e257600080fd5b6103ec82826108b9565b5050565b3360008181526001602090815260408083206001600160a01b0387168452909152812054909161030c9185906103bb908690610a72565b60606004805461027c90610aa1565b3360009081526001602090815260408083206001600160a01b0386168452909152812054828110156104b85760405162461bcd60e51b815260206004820152602560248201527f45524332303a2064656372656173656420616c6c6f77616e63652062656c6f77604482015264207a65726f60d81b60648201526084016103a3565b6104c733856103bb8685610a8a565b5060019392505050565b600061030c3384846106e1565b6001600160a01b0382166105345760405162461bcd60e51b815260206004820152601f60248201527f45524332303a206d696e7420746f20746865207a65726f20616464726573730060448201526064016103a3565b80600260008282546105469190610a72565b90915550506001600160a01b03821660009081526020819052604081208054839290610573908490610a72565b90915550506040518181526001600160a01b038316906000907fddf252ad1be2c89b69c2b068fc378daa952ba7f163c4a11628f55a4df523b3ef9060200160405180910390a35050565b6001600160a01b03831661061f5760405162461bcd60e51b8152602060048201526024808201527f45524332303a20617070726f76652066726f6d20746865207a65726f206164646044820152637265737360e01b60648201526084016103a3565b6001600160a01b0382166106805760405162461bcd60e51b815260206004820152602260248201527f45524332303a20617070726f766520746f20746865207a65726f206164647265604482015261737360f01b60648201526084016103a3565b6001600160a01b0383811660008181526001602090815260408083209487168084529482529182902085905590518481527f8c5be1e5ebec7d5bd14f71427d1e84f3dd0314c0f7b2291e5b200ac8c7c3b925910160405180910390a3505050565b6001600160a01b0383166107455760405162461bcd60e51b815260206004820152602560248201527f45524332303a207472616e736665722066726f6d20746865207a65726f206164604482015264647265737360d81b60648201526084016103a3565b6001600160a01b0382166107a75760405162461bcd60e51b815260206004820152602360248201527f45524332303a207472616e7366657220746f20746865207a65726f206164647260448201526265737360e81b60648201526084016103a3565b6001600160a01b0383166000908152602081905260409020548181101561081f5760405162461bcd60e51b815260206004820152602660248201527f45524332303a207472616e7366657220616d6f756e7420657863656564732062604482015265616c616e636560d01b60648201526084016103a3565b6108298282610a8a565b6001600160a01b03808616600090815260208190526040808220939093559085168152908120805484929061085f908490610a72565b92505081905550826001600160a01b0316846001600160a01b03167fddf252ad1be2c89b69c2b068fc378daa952ba7f163c4a11628f55a4df523b3ef846040516108ab91815260200190565b60405180910390a350505050565b7f0000000000000000000000000000000000000000000000000000000000000000816108e460025490565b6108ee9190610a72565b111561093c5760405162461bcd60e51b815260206004820152601960248201527f45524332304361707065643a206361702065786365656465640000000000000060448201526064016103a3565b6103ec82826104de565b80356001600160a01b038116811461095d57600080fd5b919050565b60006020828403121561097457600080fd5b61097d82610946565b9392505050565b6000806040838503121561099757600080fd5b6109a083610946565b91506109ae60208401610946565b90509250929050565b6000806000606084860312156109cc57600080fd5b6109d584610946565b92506109e360208501610946565b9150604084013590509250925092565b60008060408385031215610a0657600080fd5b610a0f83610946565b946020939093013593505050565b600060208083528351808285015260005b81811015610a4a57858101830151858201604001528201610a2e565b81811115610a5c576000604083870101525b50601f01601f1916929092016040019392505050565b60008219821115610a8557610a85610adc565b500190565b600082821015610a9c57610a9c610adc565b500390565b600181811c90821680610ab557607f821691505b60208210811415610ad657634e487b7160e01b600052602260045260246000fd5b50919050565b634e487b7160e01b600052601160045260246000fdfea26469706673582212203741e857b23496f20b5a142d81283da74260f0d0d0df41f0762b97e5eccc2c8b64736f6c63430008070033",
  "linkReferences": {},
  "deployedLinkReferences": {}
}